{
	"simpletokenswap.sol": {
		"SimpleTokenSwap": {
			"abi": [
				{
					"inputs": [
						{
							"internalType": "contract ISwapRouter",
							"name": "_swapRouter",
							"type": "address"
						}
					],
					"stateMutability": "nonpayable",
					"type": "constructor"
				},
				{
					"inputs": [],
					"name": "WETH9",
					"outputs": [
						{
							"internalType": "address",
							"name": "",
							"type": "address"
						}
					],
					"stateMutability": "view",
					"type": "function"
				},
				{
					"inputs": [
						{
							"internalType": "address",
							"name": "tokenIn",
							"type": "address"
						},
						{
							"internalType": "address",
							"name": "tokenOut",
							"type": "address"
						},
						{
							"internalType": "uint256",
							"name": "amountIn",
							"type": "uint256"
						},
						{
							"internalType": "uint256",
							"name": "amountOutMin",
							"type": "uint256"
						},
						{
							"internalType": "address",
							"name": "recipient",
							"type": "address"
						}
					],
					"name": "swapExactInputSingle",
					"outputs": [
						{
							"internalType": "uint256",
							"name": "amountOut",
							"type": "uint256"
						}
					],
					"stateMutability": "nonpayable",
					"type": "function"
				},
				{
					"inputs": [],
					"name": "swapRouter",
					"outputs": [
						{
							"internalType": "contract ISwapRouter",
							"name": "",
							"type": "address"
						}
					],
					"stateMutability": "view",
					"type": "function"
				}
			],
			"devdoc": {
				"kind": "dev",
				"methods": {},
				"version": 1
			},
			"evm": {
				"assembly": "    /* \"simpletokenswap.sol\":310:2568  contract SimpleTokenSwap {... */\n  mstore(0x40, 0xa0)\n    /* \"simpletokenswap.sol\":613:693  constructor(ISwapRouter _swapRouter) {... */\n  callvalue\n  dup1\n  iszero\n  tag_1\n  jumpi\n  0x00\n  dup1\n  revert\ntag_1:\n  pop\n  mload(0x40)\n  sub(codesize, bytecodeSize)\n  dup1\n  bytecodeSize\n  dup4\n  codecopy\n  dup2\n  dup2\n  add\n  0x40\n  mstore\n  dup2\n  add\n  swap1\n  tag_2\n  swap2\n  swap1\n  tag_3\n  jump\t// in\ntag_2:\n    /* \"simpletokenswap.sol\":674:685  _swapRouter */\n  dup1\n    /* \"simpletokenswap.sol\":661:685  swapRouter = _swapRouter */\n  0xffffffffffffffffffffffffffffffffffffffff\n  and\n  0x80\n  dup2\n  0xffffffffffffffffffffffffffffffffffffffff\n  and\n  dup2\n  mstore\n  pop\n  pop\n    /* \"simpletokenswap.sol\":613:693  constructor(ISwapRouter _swapRouter) {... */\n  pop\n    /* \"simpletokenswap.sol\":310:2568  contract SimpleTokenSwap {... */\n  jump(tag_6)\n    /* \"#utility.yul\":88:205   */\ntag_8:\n    /* \"#utility.yul\":197:198   */\n  0x00\n    /* \"#utility.yul\":194:195   */\n  dup1\n    /* \"#utility.yul\":187:199   */\n  revert\n    /* \"#utility.yul\":334:460   */\ntag_10:\n    /* \"#utility.yul\":371:378   */\n  0x00\n    /* \"#utility.yul\":411:453   */\n  0xffffffffffffffffffffffffffffffffffffffff\n    /* \"#utility.yul\":404:409   */\n  dup3\n    /* \"#utility.yul\":400:454   */\n  and\n    /* \"#utility.yul\":389:454   */\n  swap1\n  pop\n    /* \"#utility.yul\":334:460   */\n  swap2\n  swap1\n  pop\n  jump\t// out\n    /* \"#utility.yul\":466:562   */\ntag_11:\n    /* \"#utility.yul\":503:510   */\n  0x00\n    /* \"#utility.yul\":532:556   */\n  tag_21\n    /* \"#utility.yul\":550:555   */\n  dup3\n    /* \"#utility.yul\":532:556   */\n  tag_10\n  jump\t// in\ntag_21:\n    /* \"#utility.yul\":521:556   */\n  swap1\n  pop\n    /* \"#utility.yul\":466:562   */\n  swap2\n  swap1\n  pop\n  jump\t// out\n    /* \"#utility.yul\":568:683   */\ntag_12:\n    /* \"#utility.yul\":624:631   */\n  0x00\n    /* \"#utility.yul\":653:677   */\n  tag_23\n    /* \"#utility.yul\":671:676   */\n  dup3\n    /* \"#utility.yul\":653:677   */\n  tag_11\n  jump\t// in\ntag_23:\n    /* \"#utility.yul\":642:677   */\n  swap1\n  pop\n    /* \"#utility.yul\":568:683   */\n  swap2\n  swap1\n  pop\n  jump\t// out\n    /* \"#utility.yul\":689:849   */\ntag_13:\n    /* \"#utility.yul\":781:824   */\n  tag_25\n    /* \"#utility.yul\":818:823   */\n  dup2\n    /* \"#utility.yul\":781:824   */\n  tag_12\n  jump\t// in\ntag_25:\n    /* \"#utility.yul\":774:779   */\n  dup2\n    /* \"#utility.yul\":771:825   */\n  eq\n    /* \"#utility.yul\":761:843   */\n  tag_26\n  jumpi\n    /* \"#utility.yul\":839:840   */\n  0x00\n    /* \"#utility.yul\":836:837   */\n  dup1\n    /* \"#utility.yul\":829:841   */\n  revert\n    /* \"#utility.yul\":761:843   */\ntag_26:\n    /* \"#utility.yul\":689:849   */\n  pop\n  jump\t// out\n    /* \"#utility.yul\":855:1036   */\ntag_14:\n    /* \"#utility.yul\":931:936   */\n  0x00\n    /* \"#utility.yul\":962:968   */\n  dup2\n    /* \"#utility.yul\":956:969   */\n  mload\n    /* \"#utility.yul\":947:969   */\n  swap1\n  pop\n    /* \"#utility.yul\":978:1030   */\n  tag_28\n    /* \"#utility.yul\":1024:1029   */\n  dup2\n    /* \"#utility.yul\":978:1030   */\n  tag_13\n  jump\t// in\ntag_28:\n    /* \"#utility.yul\":855:1036   */\n  swap3\n  swap2\n  pop\n  pop\n  jump\t// out\n    /* \"#utility.yul\":1042:1431   */\ntag_3:\n    /* \"#utility.yul\":1131:1137   */\n  0x00\n    /* \"#utility.yul\":1180:1182   */\n  0x20\n    /* \"#utility.yul\":1168:1177   */\n  dup3\n    /* \"#utility.yul\":1159:1166   */\n  dup5\n    /* \"#utility.yul\":1155:1178   */\n  sub\n    /* \"#utility.yul\":1151:1183   */\n  slt\n    /* \"#utility.yul\":1148:1267   */\n  iszero\n  tag_30\n  jumpi\n    /* \"#utility.yul\":1186:1265   */\n  tag_31\n  tag_8\n  jump\t// in\ntag_31:\n    /* \"#utility.yul\":1148:1267   */\ntag_30:\n    /* \"#utility.yul\":1306:1307   */\n  0x00\n    /* \"#utility.yul\":1331:1414   */\n  tag_32\n    /* \"#utility.yul\":1406:1413   */\n  dup5\n    /* \"#utility.yul\":1397:1403   */\n  dup3\n    /* \"#utility.yul\":1386:1395   */\n  dup6\n    /* \"#utility.yul\":1382:1404   */\n  add\n    /* \"#utility.yul\":1331:1414   */\n  tag_14\n  jump\t// in\ntag_32:\n    /* \"#utility.yul\":1321:1414   */\n  swap2\n  pop\n    /* \"#utility.yul\":1277:1424   */\n  pop\n    /* \"#utility.yul\":1042:1431   */\n  swap3\n  swap2\n  pop\n  pop\n  jump\t// out\n    /* \"simpletokenswap.sol\":310:2568  contract SimpleTokenSwap {... */\ntag_6:\n  mload(0x80)\n  codecopy(0x00, dataOffset(sub_0), dataSize(sub_0))\n  0x00\n  assignImmutable(\"0x69e3c6522a2f8bf12e780ae53c30e69d48d224ea00c92026278c398148e8df91\")\n  return(0x00, dataSize(sub_0))\nstop\n\nsub_0: assembly {\n        /* \"simpletokenswap.sol\":310:2568  contract SimpleTokenSwap {... */\n      mstore(0x40, 0x80)\n      callvalue\n      dup1\n      iszero\n      tag_1\n      jumpi\n      0x00\n      dup1\n      revert\n    tag_1:\n      pop\n      jumpi(tag_2, lt(calldatasize, 0x04))\n      shr(0xe0, calldataload(0x00))\n      dup1\n      0x4aa4a4fc\n      eq\n      tag_3\n      jumpi\n      dup1\n      0x59953f16\n      eq\n      tag_4\n      jumpi\n      dup1\n      0xc31c9c07\n      eq\n      tag_5\n      jumpi\n    tag_2:\n      0x00\n      dup1\n      revert\n        /* \"simpletokenswap.sol\":454:537  address public constant WETH9 = address(0xC02aaA39b223FE8D0A0e5C4F27eAD9083C756Cc2) */\n    tag_3:\n      tag_6\n      tag_7\n      jump\t// in\n    tag_6:\n      mload(0x40)\n      tag_8\n      swap2\n      swap1\n      tag_9\n      jump\t// in\n    tag_8:\n      mload(0x40)\n      dup1\n      swap2\n      sub\n      swap1\n      return\n        /* \"simpletokenswap.sol\":800:2565  function swapExactInputSingle(... */\n    tag_4:\n      tag_10\n      0x04\n      dup1\n      calldatasize\n      sub\n      dup2\n      add\n      swap1\n      tag_11\n      swap2\n      swap1\n      tag_12\n      jump\t// in\n    tag_11:\n      tag_13\n      jump\t// in\n    tag_10:\n      mload(0x40)\n      tag_14\n      swap2\n      swap1\n      tag_15\n      jump\t// in\n    tag_14:\n      mload(0x40)\n      dup1\n      swap2\n      sub\n      swap1\n      return\n        /* \"simpletokenswap.sol\":344:383  ISwapRouter public immutable swapRouter */\n    tag_5:\n      tag_16\n      tag_17\n      jump\t// in\n    tag_16:\n      mload(0x40)\n      tag_18\n      swap2\n      swap1\n      tag_19\n      jump\t// in\n    tag_18:\n      mload(0x40)\n      dup1\n      swap2\n      sub\n      swap1\n      return\n        /* \"simpletokenswap.sol\":454:537  address public constant WETH9 = address(0xC02aaA39b223FE8D0A0e5C4F27eAD9083C756Cc2) */\n    tag_7:\n        /* \"simpletokenswap.sol\":494:536  0xC02aaA39b223FE8D0A0e5C4F27eAD9083C756Cc2 */\n      0xc02aaa39b223fe8d0a0e5c4f27ead9083c756cc2\n        /* \"simpletokenswap.sol\":454:537  address public constant WETH9 = address(0xC02aaA39b223FE8D0A0e5C4F27eAD9083C756Cc2) */\n      dup2\n      jump\t// out\n        /* \"simpletokenswap.sol\":800:2565  function swapExactInputSingle(... */\n    tag_13:\n        /* \"simpletokenswap.sol\":1227:1244  uint256 amountOut */\n      0x00\n        /* \"simpletokenswap.sol\":1342:1349  tokenIn */\n      dup6\n        /* \"simpletokenswap.sol\":1335:1363  IERC20(tokenIn).transferFrom */\n      0xffffffffffffffffffffffffffffffffffffffff\n      and\n      0x23b872dd\n        /* \"simpletokenswap.sol\":1364:1374  msg.sender */\n      caller\n        /* \"simpletokenswap.sol\":1384:1388  this */\n      address\n        /* \"simpletokenswap.sol\":1391:1399  amountIn */\n      dup8\n        /* \"simpletokenswap.sol\":1335:1400  IERC20(tokenIn).transferFrom(msg.sender, address(this), amountIn) */\n      mload(0x40)\n      dup5\n      0xffffffff\n      and\n      0xe0\n      shl\n      dup2\n      mstore\n      0x04\n      add\n      tag_21\n      swap4\n      swap3\n      swap2\n      swap1\n      tag_22\n      jump\t// in\n    tag_21:\n      0x20\n      mload(0x40)\n      dup1\n      dup4\n      sub\n      dup2\n      0x00\n      dup8\n      gas\n      call\n      iszero\n      dup1\n      iszero\n      tag_24\n      jumpi\n      returndatasize\n      0x00\n      dup1\n      returndatacopy\n      revert(0x00, returndatasize)\n    tag_24:\n      pop\n      pop\n      pop\n      pop\n      mload(0x40)\n      returndatasize\n      not(0x1f)\n      0x1f\n      dup3\n      add\n      and\n      dup3\n      add\n      dup1\n      0x40\n      mstore\n      pop\n      dup2\n      add\n      swap1\n      tag_25\n      swap2\n      swap1\n      tag_26\n      jump\t// in\n    tag_25:\n      pop\n        /* \"simpletokenswap.sol\":1512:1519  tokenIn */\n      dup6\n        /* \"simpletokenswap.sol\":1505:1528  IERC20(tokenIn).approve */\n      0xffffffffffffffffffffffffffffffffffffffff\n      and\n      0x095ea7b3\n        /* \"simpletokenswap.sol\":1537:1547  swapRouter */\n      immutable(\"0x69e3c6522a2f8bf12e780ae53c30e69d48d224ea00c92026278c398148e8df91\")\n        /* \"simpletokenswap.sol\":1550:1558  amountIn */\n      dup7\n        /* \"simpletokenswap.sol\":1505:1559  IERC20(tokenIn).approve(address(swapRouter), amountIn) */\n      mload(0x40)\n      dup4\n      0xffffffff\n      and\n      0xe0\n      shl\n      dup2\n      mstore\n      0x04\n      add\n      tag_27\n      swap3\n      swap2\n      swap1\n      tag_28\n      jump\t// in\n    tag_27:\n      0x20\n      mload(0x40)\n      dup1\n      dup4\n      sub\n      dup2\n      0x00\n      dup8\n      gas\n      call\n      iszero\n      dup1\n      iszero\n      tag_30\n      jumpi\n      returndatasize\n      0x00\n      dup1\n      returndatacopy\n      revert(0x00, returndatasize)\n    tag_30:\n      pop\n      pop\n      pop\n      pop\n      mload(0x40)\n      returndatasize\n      not(0x1f)\n      0x1f\n      dup3\n      add\n      and\n      dup3\n      add\n      dup1\n      0x40\n      mstore\n      pop\n      dup2\n      add\n      swap1\n      tag_31\n      swap2\n      swap1\n      tag_26\n      jump\t// in\n    tag_31:\n      pop\n        /* \"simpletokenswap.sol\":1665:1713  ISwapRouter.ExactInputSingleParams memory params */\n      0x00\n        /* \"simpletokenswap.sol\":1729:2439  ISwapRouter.ExactInputSingleParams({... */\n      mload(0x40)\n      dup1\n      0x0100\n      add\n      0x40\n      mstore\n      dup1\n        /* \"simpletokenswap.sol\":1792:1799  tokenIn */\n      dup9\n        /* \"simpletokenswap.sol\":1729:2439  ISwapRouter.ExactInputSingleParams({... */\n      0xffffffffffffffffffffffffffffffffffffffff\n      and\n      dup2\n      mstore\n      0x20\n      add\n        /* \"simpletokenswap.sol\":1872:1880  tokenOut */\n      dup8\n        /* \"simpletokenswap.sol\":1729:2439  ISwapRouter.ExactInputSingleParams({... */\n      0xffffffffffffffffffffffffffffffffffffffff\n      and\n      dup2\n      mstore\n      0x20\n      add\n        /* \"simpletokenswap.sol\":1943:1947  3000 */\n      0x0bb8\n        /* \"simpletokenswap.sol\":1729:2439  ISwapRouter.ExactInputSingleParams({... */\n      0xffffff\n      and\n      dup2\n      mstore\n      0x20\n      add\n        /* \"simpletokenswap.sol\":2030:2039  recipient */\n      dup5\n        /* \"simpletokenswap.sol\":1729:2439  ISwapRouter.ExactInputSingleParams({... */\n      0xffffffffffffffffffffffffffffffffffffffff\n      and\n      dup2\n      mstore\n      0x20\n      add\n        /* \"simpletokenswap.sol\":2134:2136  15 */\n      0x0f\n        /* \"simpletokenswap.sol\":2116:2131  block.timestamp */\n      timestamp\n        /* \"simpletokenswap.sol\":2116:2136  block.timestamp + 15 */\n      tag_32\n      swap2\n      swap1\n      tag_33\n      jump\t// in\n    tag_32:\n        /* \"simpletokenswap.sol\":1729:2439  ISwapRouter.ExactInputSingleParams({... */\n      dup2\n      mstore\n      0x20\n      add\n        /* \"simpletokenswap.sol\":2215:2223  amountIn */\n      dup7\n        /* \"simpletokenswap.sol\":1729:2439  ISwapRouter.ExactInputSingleParams({... */\n      dup2\n      mstore\n      0x20\n      add\n        /* \"simpletokenswap.sol\":2301:2313  amountOutMin */\n      dup6\n        /* \"simpletokenswap.sol\":1729:2439  ISwapRouter.ExactInputSingleParams({... */\n      dup2\n      mstore\n      0x20\n      add\n        /* \"simpletokenswap.sol\":2390:2391  0 */\n      0x00\n        /* \"simpletokenswap.sol\":1729:2439  ISwapRouter.ExactInputSingleParams({... */\n      0xffffffffffffffffffffffffffffffffffffffff\n      and\n      dup2\n      mstore\n      pop\n        /* \"simpletokenswap.sol\":1665:2439  ISwapRouter.ExactInputSingleParams memory params =... */\n      swap1\n      pop\n        /* \"simpletokenswap.sol\":2522:2532  swapRouter */\n      immutable(\"0x69e3c6522a2f8bf12e780ae53c30e69d48d224ea00c92026278c398148e8df91\")\n        /* \"simpletokenswap.sol\":2522:2549  swapRouter.exactInputSingle */\n      0xffffffffffffffffffffffffffffffffffffffff\n      and\n      0x414bf389\n        /* \"simpletokenswap.sol\":2550:2556  params */\n      dup3\n        /* \"simpletokenswap.sol\":2522:2557  swapRouter.exactInputSingle(params) */\n      mload(0x40)\n      dup3\n      0xffffffff\n      and\n      0xe0\n      shl\n      dup2\n      mstore\n      0x04\n      add\n      tag_34\n      swap2\n      swap1\n      tag_35\n      jump\t// in\n    tag_34:\n      0x20\n      mload(0x40)\n      dup1\n      dup4\n      sub\n      dup2\n      0x00\n      dup8\n      gas\n      call\n      iszero\n      dup1\n      iszero\n      tag_37\n      jumpi\n      returndatasize\n      0x00\n      dup1\n      returndatacopy\n      revert(0x00, returndatasize)\n    tag_37:\n      pop\n      pop\n      pop\n      pop\n      mload(0x40)\n      returndatasize\n      not(0x1f)\n      0x1f\n      dup3\n      add\n      and\n      dup3\n      add\n      dup1\n      0x40\n      mstore\n      pop\n      dup2\n      add\n      swap1\n      tag_38\n      swap2\n      swap1\n      tag_39\n      jump\t// in\n    tag_38:\n        /* \"simpletokenswap.sol\":2510:2557  amountOut = swapRouter.exactInputSingle(params) */\n      swap2\n      pop\n        /* \"simpletokenswap.sol\":1246:2565  {... */\n      pop\n        /* \"simpletokenswap.sol\":800:2565  function swapExactInputSingle(... */\n      swap6\n      swap5\n      pop\n      pop\n      pop\n      pop\n      pop\n      jump\t// out\n        /* \"simpletokenswap.sol\":344:383  ISwapRouter public immutable swapRouter */\n    tag_17:\n      immutable(\"0x69e3c6522a2f8bf12e780ae53c30e69d48d224ea00c92026278c398148e8df91\")\n      dup2\n      jump\t// out\n        /* \"#utility.yul\":7:133   */\n    tag_40:\n        /* \"#utility.yul\":44:51   */\n      0x00\n        /* \"#utility.yul\":84:126   */\n      0xffffffffffffffffffffffffffffffffffffffff\n        /* \"#utility.yul\":77:82   */\n      dup3\n        /* \"#utility.yul\":73:127   */\n      and\n        /* \"#utility.yul\":62:127   */\n      swap1\n      pop\n        /* \"#utility.yul\":7:133   */\n      swap2\n      swap1\n      pop\n      jump\t// out\n        /* \"#utility.yul\":139:235   */\n    tag_41:\n        /* \"#utility.yul\":176:183   */\n      0x00\n        /* \"#utility.yul\":205:229   */\n      tag_71\n        /* \"#utility.yul\":223:228   */\n      dup3\n        /* \"#utility.yul\":205:229   */\n      tag_40\n      jump\t// in\n    tag_71:\n        /* \"#utility.yul\":194:229   */\n      swap1\n      pop\n        /* \"#utility.yul\":139:235   */\n      swap2\n      swap1\n      pop\n      jump\t// out\n        /* \"#utility.yul\":241:359   */\n    tag_42:\n        /* \"#utility.yul\":328:352   */\n      tag_73\n        /* \"#utility.yul\":346:351   */\n      dup2\n        /* \"#utility.yul\":328:352   */\n      tag_41\n      jump\t// in\n    tag_73:\n        /* \"#utility.yul\":323:326   */\n      dup3\n        /* \"#utility.yul\":316:353   */\n      mstore\n        /* \"#utility.yul\":241:359   */\n      pop\n      pop\n      jump\t// out\n        /* \"#utility.yul\":365:587   */\n    tag_9:\n        /* \"#utility.yul\":458:462   */\n      0x00\n        /* \"#utility.yul\":496:498   */\n      0x20\n        /* \"#utility.yul\":485:494   */\n      dup3\n        /* \"#utility.yul\":481:499   */\n      add\n        /* \"#utility.yul\":473:499   */\n      swap1\n      pop\n        /* \"#utility.yul\":509:580   */\n      tag_75\n        /* \"#utility.yul\":577:578   */\n      0x00\n        /* \"#utility.yul\":566:575   */\n      dup4\n        /* \"#utility.yul\":562:579   */\n      add\n        /* \"#utility.yul\":553:559   */\n      dup5\n        /* \"#utility.yul\":509:580   */\n      tag_42\n      jump\t// in\n    tag_75:\n        /* \"#utility.yul\":365:587   */\n      swap3\n      swap2\n      pop\n      pop\n      jump\t// out\n        /* \"#utility.yul\":674:791   */\n    tag_44:\n        /* \"#utility.yul\":783:784   */\n      0x00\n        /* \"#utility.yul\":780:781   */\n      dup1\n        /* \"#utility.yul\":773:785   */\n      revert\n        /* \"#utility.yul\":920:1042   */\n    tag_46:\n        /* \"#utility.yul\":993:1017   */\n      tag_80\n        /* \"#utility.yul\":1011:1016   */\n      dup2\n        /* \"#utility.yul\":993:1017   */\n      tag_41\n      jump\t// in\n    tag_80:\n        /* \"#utility.yul\":986:991   */\n      dup2\n        /* \"#utility.yul\":983:1018   */\n      eq\n        /* \"#utility.yul\":973:1036   */\n      tag_81\n      jumpi\n        /* \"#utility.yul\":1032:1033   */\n      0x00\n        /* \"#utility.yul\":1029:1030   */\n      dup1\n        /* \"#utility.yul\":1022:1034   */\n      revert\n        /* \"#utility.yul\":973:1036   */\n    tag_81:\n        /* \"#utility.yul\":920:1042   */\n      pop\n      jump\t// out\n        /* \"#utility.yul\":1048:1187   */\n    tag_47:\n        /* \"#utility.yul\":1094:1099   */\n      0x00\n        /* \"#utility.yul\":1132:1138   */\n      dup2\n        /* \"#utility.yul\":1119:1139   */\n      calldataload\n        /* \"#utility.yul\":1110:1139   */\n      swap1\n      pop\n        /* \"#utility.yul\":1148:1181   */\n      tag_83\n        /* \"#utility.yul\":1175:1180   */\n      dup2\n        /* \"#utility.yul\":1148:1181   */\n      tag_46\n      jump\t// in\n    tag_83:\n        /* \"#utility.yul\":1048:1187   */\n      swap3\n      swap2\n      pop\n      pop\n      jump\t// out\n        /* \"#utility.yul\":1193:1270   */\n    tag_48:\n        /* \"#utility.yul\":1230:1237   */\n      0x00\n        /* \"#utility.yul\":1259:1264   */\n      dup2\n        /* \"#utility.yul\":1248:1264   */\n      swap1\n      pop\n        /* \"#utility.yul\":1193:1270   */\n      swap2\n      swap1\n      pop\n      jump\t// out\n        /* \"#utility.yul\":1276:1398   */\n    tag_49:\n        /* \"#utility.yul\":1349:1373   */\n      tag_86\n        /* \"#utility.yul\":1367:1372   */\n      dup2\n        /* \"#utility.yul\":1349:1373   */\n      tag_48\n      jump\t// in\n    tag_86:\n        /* \"#utility.yul\":1342:1347   */\n      dup2\n        /* \"#utility.yul\":1339:1374   */\n      eq\n        /* \"#utility.yul\":1329:1392   */\n      tag_87\n      jumpi\n        /* \"#utility.yul\":1388:1389   */\n      0x00\n        /* \"#utility.yul\":1385:1386   */\n      dup1\n        /* \"#utility.yul\":1378:1390   */\n      revert\n        /* \"#utility.yul\":1329:1392   */\n    tag_87:\n        /* \"#utility.yul\":1276:1398   */\n      pop\n      jump\t// out\n        /* \"#utility.yul\":1404:1543   */\n    tag_50:\n        /* \"#utility.yul\":1450:1455   */\n      0x00\n        /* \"#utility.yul\":1488:1494   */\n      dup2\n        /* \"#utility.yul\":1475:1495   */\n      calldataload\n        /* \"#utility.yul\":1466:1495   */\n      swap1\n      pop\n        /* \"#utility.yul\":1504:1537   */\n      tag_89\n        /* \"#utility.yul\":1531:1536   */\n      dup2\n        /* \"#utility.yul\":1504:1537   */\n      tag_49\n      jump\t// in\n    tag_89:\n        /* \"#utility.yul\":1404:1543   */\n      swap3\n      swap2\n      pop\n      pop\n      jump\t// out\n        /* \"#utility.yul\":1549:2460   */\n    tag_12:\n        /* \"#utility.yul\":1644:1650   */\n      0x00\n        /* \"#utility.yul\":1652:1658   */\n      dup1\n        /* \"#utility.yul\":1660:1666   */\n      0x00\n        /* \"#utility.yul\":1668:1674   */\n      dup1\n        /* \"#utility.yul\":1676:1682   */\n      0x00\n        /* \"#utility.yul\":1725:1728   */\n      0xa0\n        /* \"#utility.yul\":1713:1722   */\n      dup7\n        /* \"#utility.yul\":1704:1711   */\n      dup9\n        /* \"#utility.yul\":1700:1723   */\n      sub\n        /* \"#utility.yul\":1696:1729   */\n      slt\n        /* \"#utility.yul\":1693:1813   */\n      iszero\n      tag_91\n      jumpi\n        /* \"#utility.yul\":1732:1811   */\n      tag_92\n      tag_44\n      jump\t// in\n    tag_92:\n        /* \"#utility.yul\":1693:1813   */\n    tag_91:\n        /* \"#utility.yul\":1852:1853   */\n      0x00\n        /* \"#utility.yul\":1877:1930   */\n      tag_93\n        /* \"#utility.yul\":1922:1929   */\n      dup9\n        /* \"#utility.yul\":1913:1919   */\n      dup3\n        /* \"#utility.yul\":1902:1911   */\n      dup10\n        /* \"#utility.yul\":1898:1920   */\n      add\n        /* \"#utility.yul\":1877:1930   */\n      tag_47\n      jump\t// in\n    tag_93:\n        /* \"#utility.yul\":1867:1930   */\n      swap6\n      pop\n        /* \"#utility.yul\":1823:1940   */\n      pop\n        /* \"#utility.yul\":1979:1981   */\n      0x20\n        /* \"#utility.yul\":2005:2058   */\n      tag_94\n        /* \"#utility.yul\":2050:2057   */\n      dup9\n        /* \"#utility.yul\":2041:2047   */\n      dup3\n        /* \"#utility.yul\":2030:2039   */\n      dup10\n        /* \"#utility.yul\":2026:2048   */\n      add\n        /* \"#utility.yul\":2005:2058   */\n      tag_47\n      jump\t// in\n    tag_94:\n        /* \"#utility.yul\":1995:2058   */\n      swap5\n      pop\n        /* \"#utility.yul\":1950:2068   */\n      pop\n        /* \"#utility.yul\":2107:2109   */\n      0x40\n        /* \"#utility.yul\":2133:2186   */\n      tag_95\n        /* \"#utility.yul\":2178:2185   */\n      dup9\n        /* \"#utility.yul\":2169:2175   */\n      dup3\n        /* \"#utility.yul\":2158:2167   */\n      dup10\n        /* \"#utility.yul\":2154:2176   */\n      add\n        /* \"#utility.yul\":2133:2186   */\n      tag_50\n      jump\t// in\n    tag_95:\n        /* \"#utility.yul\":2123:2186   */\n      swap4\n      pop\n        /* \"#utility.yul\":2078:2196   */\n      pop\n        /* \"#utility.yul\":2235:2237   */\n      0x60\n        /* \"#utility.yul\":2261:2314   */\n      tag_96\n        /* \"#utility.yul\":2306:2313   */\n      dup9\n        /* \"#utility.yul\":2297:2303   */\n      dup3\n        /* \"#utility.yul\":2286:2295   */\n      dup10\n        /* \"#utility.yul\":2282:2304   */\n      add\n        /* \"#utility.yul\":2261:2314   */\n      tag_50\n      jump\t// in\n    tag_96:\n        /* \"#utility.yul\":2251:2314   */\n      swap3\n      pop\n        /* \"#utility.yul\":2206:2324   */\n      pop\n        /* \"#utility.yul\":2363:2366   */\n      0x80\n        /* \"#utility.yul\":2390:2443   */\n      tag_97\n        /* \"#utility.yul\":2435:2442   */\n      dup9\n        /* \"#utility.yul\":2426:2432   */\n      dup3\n        /* \"#utility.yul\":2415:2424   */\n      dup10\n        /* \"#utility.yul\":2411:2433   */\n      add\n        /* \"#utility.yul\":2390:2443   */\n      tag_47\n      jump\t// in\n    tag_97:\n        /* \"#utility.yul\":2380:2443   */\n      swap2\n      pop\n        /* \"#utility.yul\":2334:2453   */\n      pop\n        /* \"#utility.yul\":1549:2460   */\n      swap3\n      swap6\n      pop\n      swap3\n      swap6\n      swap1\n      swap4\n      pop\n      jump\t// out\n        /* \"#utility.yul\":2466:2584   */\n    tag_51:\n        /* \"#utility.yul\":2553:2577   */\n      tag_99\n        /* \"#utility.yul\":2571:2576   */\n      dup2\n        /* \"#utility.yul\":2553:2577   */\n      tag_48\n      jump\t// in\n    tag_99:\n        /* \"#utility.yul\":2548:2551   */\n      dup3\n        /* \"#utility.yul\":2541:2578   */\n      mstore\n        /* \"#utility.yul\":2466:2584   */\n      pop\n      pop\n      jump\t// out\n        /* \"#utility.yul\":2590:2812   */\n    tag_15:\n        /* \"#utility.yul\":2683:2687   */\n      0x00\n        /* \"#utility.yul\":2721:2723   */\n      0x20\n        /* \"#utility.yul\":2710:2719   */\n      dup3\n        /* \"#utility.yul\":2706:2724   */\n      add\n        /* \"#utility.yul\":2698:2724   */\n      swap1\n      pop\n        /* \"#utility.yul\":2734:2805   */\n      tag_101\n        /* \"#utility.yul\":2802:2803   */\n      0x00\n        /* \"#utility.yul\":2791:2800   */\n      dup4\n        /* \"#utility.yul\":2787:2804   */\n      add\n        /* \"#utility.yul\":2778:2784   */\n      dup5\n        /* \"#utility.yul\":2734:2805   */\n      tag_51\n      jump\t// in\n    tag_101:\n        /* \"#utility.yul\":2590:2812   */\n      swap3\n      swap2\n      pop\n      pop\n      jump\t// out\n        /* \"#utility.yul\":2818:2878   */\n    tag_52:\n        /* \"#utility.yul\":2846:2849   */\n      0x00\n        /* \"#utility.yul\":2867:2872   */\n      dup2\n        /* \"#utility.yul\":2860:2872   */\n      swap1\n      pop\n        /* \"#utility.yul\":2818:2878   */\n      swap2\n      swap1\n      pop\n      jump\t// out\n        /* \"#utility.yul\":2884:3026   */\n    tag_53:\n        /* \"#utility.yul\":2934:2943   */\n      0x00\n        /* \"#utility.yul\":2967:3020   */\n      tag_104\n        /* \"#utility.yul\":2985:3019   */\n      tag_105\n        /* \"#utility.yul\":2994:3018   */\n      tag_106\n        /* \"#utility.yul\":3012:3017   */\n      dup5\n        /* \"#utility.yul\":2994:3018   */\n      tag_40\n      jump\t// in\n    tag_106:\n        /* \"#utility.yul\":2985:3019   */\n      tag_52\n      jump\t// in\n    tag_105:\n        /* \"#utility.yul\":2967:3020   */\n      tag_40\n      jump\t// in\n    tag_104:\n        /* \"#utility.yul\":2954:3020   */\n      swap1\n      pop\n        /* \"#utility.yul\":2884:3026   */\n      swap2\n      swap1\n      pop\n      jump\t// out\n        /* \"#utility.yul\":3032:3158   */\n    tag_54:\n        /* \"#utility.yul\":3082:3091   */\n      0x00\n        /* \"#utility.yul\":3115:3152   */\n      tag_108\n        /* \"#utility.yul\":3146:3151   */\n      dup3\n        /* \"#utility.yul\":3115:3152   */\n      tag_53\n      jump\t// in\n    tag_108:\n        /* \"#utility.yul\":3102:3152   */\n      swap1\n      pop\n        /* \"#utility.yul\":3032:3158   */\n      swap2\n      swap1\n      pop\n      jump\t// out\n        /* \"#utility.yul\":3164:3309   */\n    tag_55:\n        /* \"#utility.yul\":3233:3242   */\n      0x00\n        /* \"#utility.yul\":3266:3303   */\n      tag_110\n        /* \"#utility.yul\":3297:3302   */\n      dup3\n        /* \"#utility.yul\":3266:3303   */\n      tag_54\n      jump\t// in\n    tag_110:\n        /* \"#utility.yul\":3253:3303   */\n      swap1\n      pop\n        /* \"#utility.yul\":3164:3309   */\n      swap2\n      swap1\n      pop\n      jump\t// out\n        /* \"#utility.yul\":3315:3484   */\n    tag_56:\n        /* \"#utility.yul\":3421:3477   */\n      tag_112\n        /* \"#utility.yul\":3471:3476   */\n      dup2\n        /* \"#utility.yul\":3421:3477   */\n      tag_55\n      jump\t// in\n    tag_112:\n        /* \"#utility.yul\":3416:3419   */\n      dup3\n        /* \"#utility.yul\":3409:3478   */\n      mstore\n        /* \"#utility.yul\":3315:3484   */\n      pop\n      pop\n      jump\t// out\n        /* \"#utility.yul\":3490:3750   */\n    tag_19:\n        /* \"#utility.yul\":3602:3606   */\n      0x00\n        /* \"#utility.yul\":3640:3642   */\n      0x20\n        /* \"#utility.yul\":3629:3638   */\n      dup3\n        /* \"#utility.yul\":3625:3643   */\n      add\n        /* \"#utility.yul\":3617:3643   */\n      swap1\n      pop\n        /* \"#utility.yul\":3653:3743   */\n      tag_114\n        /* \"#utility.yul\":3740:3741   */\n      0x00\n        /* \"#utility.yul\":3729:3738   */\n      dup4\n        /* \"#utility.yul\":3725:3742   */\n      add\n        /* \"#utility.yul\":3716:3722   */\n      dup5\n        /* \"#utility.yul\":3653:3743   */\n      tag_56\n      jump\t// in\n    tag_114:\n        /* \"#utility.yul\":3490:3750   */\n      swap3\n      swap2\n      pop\n      pop\n      jump\t// out\n        /* \"#utility.yul\":3756:4198   */\n    tag_22:\n        /* \"#utility.yul\":3905:3909   */\n      0x00\n        /* \"#utility.yul\":3943:3945   */\n      0x60\n        /* \"#utility.yul\":3932:3941   */\n      dup3\n        /* \"#utility.yul\":3928:3946   */\n      add\n        /* \"#utility.yul\":3920:3946   */\n      swap1\n      pop\n        /* \"#utility.yul\":3956:4027   */\n      tag_116\n        /* \"#utility.yul\":4024:4025   */\n      0x00\n        /* \"#utility.yul\":4013:4022   */\n      dup4\n        /* \"#utility.yul\":4009:4026   */\n      add\n        /* \"#utility.yul\":4000:4006   */\n      dup7\n        /* \"#utility.yul\":3956:4027   */\n      tag_42\n      jump\t// in\n    tag_116:\n        /* \"#utility.yul\":4037:4109   */\n      tag_117\n        /* \"#utility.yul\":4105:4107   */\n      0x20\n        /* \"#utility.yul\":4094:4103   */\n      dup4\n        /* \"#utility.yul\":4090:4108   */\n      add\n        /* \"#utility.yul\":4081:4087   */\n      dup6\n        /* \"#utility.yul\":4037:4109   */\n      tag_42\n      jump\t// in\n    tag_117:\n        /* \"#utility.yul\":4119:4191   */\n      tag_118\n        /* \"#utility.yul\":4187:4189   */\n      0x40\n        /* \"#utility.yul\":4176:4185   */\n      dup4\n        /* \"#utility.yul\":4172:4190   */\n      add\n        /* \"#utility.yul\":4163:4169   */\n      dup5\n        /* \"#utility.yul\":4119:4191   */\n      tag_51\n      jump\t// in\n    tag_118:\n        /* \"#utility.yul\":3756:4198   */\n      swap5\n      swap4\n      pop\n      pop\n      pop\n      pop\n      jump\t// out\n        /* \"#utility.yul\":4204:4294   */\n    tag_57:\n        /* \"#utility.yul\":4238:4245   */\n      0x00\n        /* \"#utility.yul\":4281:4286   */\n      dup2\n        /* \"#utility.yul\":4274:4287   */\n      iszero\n        /* \"#utility.yul\":4267:4288   */\n      iszero\n        /* \"#utility.yul\":4256:4288   */\n      swap1\n      pop\n        /* \"#utility.yul\":4204:4294   */\n      swap2\n      swap1\n      pop\n      jump\t// out\n        /* \"#utility.yul\":4300:4416   */\n    tag_58:\n        /* \"#utility.yul\":4370:4391   */\n      tag_121\n        /* \"#utility.yul\":4385:4390   */\n      dup2\n        /* \"#utility.yul\":4370:4391   */\n      tag_57\n      jump\t// in\n    tag_121:\n        /* \"#utility.yul\":4363:4368   */\n      dup2\n        /* \"#utility.yul\":4360:4392   */\n      eq\n        /* \"#utility.yul\":4350:4410   */\n      tag_122\n      jumpi\n        /* \"#utility.yul\":4406:4407   */\n      0x00\n        /* \"#utility.yul\":4403:4404   */\n      dup1\n        /* \"#utility.yul\":4396:4408   */\n      revert\n        /* \"#utility.yul\":4350:4410   */\n    tag_122:\n        /* \"#utility.yul\":4300:4416   */\n      pop\n      jump\t// out\n        /* \"#utility.yul\":4422:4559   */\n    tag_59:\n        /* \"#utility.yul\":4476:4481   */\n      0x00\n        /* \"#utility.yul\":4507:4513   */\n      dup2\n        /* \"#utility.yul\":4501:4514   */\n      mload\n        /* \"#utility.yul\":4492:4514   */\n      swap1\n      pop\n        /* \"#utility.yul\":4523:4553   */\n      tag_124\n        /* \"#utility.yul\":4547:4552   */\n      dup2\n        /* \"#utility.yul\":4523:4553   */\n      tag_58\n      jump\t// in\n    tag_124:\n        /* \"#utility.yul\":4422:4559   */\n      swap3\n      swap2\n      pop\n      pop\n      jump\t// out\n        /* \"#utility.yul\":4565:4910   */\n    tag_26:\n        /* \"#utility.yul\":4632:4638   */\n      0x00\n        /* \"#utility.yul\":4681:4683   */\n      0x20\n        /* \"#utility.yul\":4669:4678   */\n      dup3\n        /* \"#utility.yul\":4660:4667   */\n      dup5\n        /* \"#utility.yul\":4656:4679   */\n      sub\n        /* \"#utility.yul\":4652:4684   */\n      slt\n        /* \"#utility.yul\":4649:4768   */\n      iszero\n      tag_126\n      jumpi\n        /* \"#utility.yul\":4687:4766   */\n      tag_127\n      tag_44\n      jump\t// in\n    tag_127:\n        /* \"#utility.yul\":4649:4768   */\n    tag_126:\n        /* \"#utility.yul\":4807:4808   */\n      0x00\n        /* \"#utility.yul\":4832:4893   */\n      tag_128\n        /* \"#utility.yul\":4885:4892   */\n      dup5\n        /* \"#utility.yul\":4876:4882   */\n      dup3\n        /* \"#utility.yul\":4865:4874   */\n      dup6\n        /* \"#utility.yul\":4861:4883   */\n      add\n        /* \"#utility.yul\":4832:4893   */\n      tag_59\n      jump\t// in\n    tag_128:\n        /* \"#utility.yul\":4822:4893   */\n      swap2\n      pop\n        /* \"#utility.yul\":4778:4903   */\n      pop\n        /* \"#utility.yul\":4565:4910   */\n      swap3\n      swap2\n      pop\n      pop\n      jump\t// out\n        /* \"#utility.yul\":4916:5248   */\n    tag_28:\n        /* \"#utility.yul\":5037:5041   */\n      0x00\n        /* \"#utility.yul\":5075:5077   */\n      0x40\n        /* \"#utility.yul\":5064:5073   */\n      dup3\n        /* \"#utility.yul\":5060:5078   */\n      add\n        /* \"#utility.yul\":5052:5078   */\n      swap1\n      pop\n        /* \"#utility.yul\":5088:5159   */\n      tag_130\n        /* \"#utility.yul\":5156:5157   */\n      0x00\n        /* \"#utility.yul\":5145:5154   */\n      dup4\n        /* \"#utility.yul\":5141:5158   */\n      add\n        /* \"#utility.yul\":5132:5138   */\n      dup6\n        /* \"#utility.yul\":5088:5159   */\n      tag_42\n      jump\t// in\n    tag_130:\n        /* \"#utility.yul\":5169:5241   */\n      tag_131\n        /* \"#utility.yul\":5237:5239   */\n      0x20\n        /* \"#utility.yul\":5226:5235   */\n      dup4\n        /* \"#utility.yul\":5222:5240   */\n      add\n        /* \"#utility.yul\":5213:5219   */\n      dup5\n        /* \"#utility.yul\":5169:5241   */\n      tag_51\n      jump\t// in\n    tag_131:\n        /* \"#utility.yul\":4916:5248   */\n      swap4\n      swap3\n      pop\n      pop\n      pop\n      jump\t// out\n        /* \"#utility.yul\":5254:5434   */\n    tag_60:\n        /* \"#utility.yul\":5302:5379   */\n      0x4e487b7100000000000000000000000000000000000000000000000000000000\n        /* \"#utility.yul\":5299:5300   */\n      0x00\n        /* \"#utility.yul\":5292:5380   */\n      mstore\n        /* \"#utility.yul\":5399:5403   */\n      0x11\n        /* \"#utility.yul\":5396:5397   */\n      0x04\n        /* \"#utility.yul\":5389:5404   */\n      mstore\n        /* \"#utility.yul\":5423:5427   */\n      0x24\n        /* \"#utility.yul\":5420:5421   */\n      0x00\n        /* \"#utility.yul\":5413:5428   */\n      revert\n        /* \"#utility.yul\":5440:5631   */\n    tag_33:\n        /* \"#utility.yul\":5480:5483   */\n      0x00\n        /* \"#utility.yul\":5499:5519   */\n      tag_134\n        /* \"#utility.yul\":5517:5518   */\n      dup3\n        /* \"#utility.yul\":5499:5519   */\n      tag_48\n      jump\t// in\n    tag_134:\n        /* \"#utility.yul\":5494:5519   */\n      swap2\n      pop\n        /* \"#utility.yul\":5533:5553   */\n      tag_135\n        /* \"#utility.yul\":5551:5552   */\n      dup4\n        /* \"#utility.yul\":5533:5553   */\n      tag_48\n      jump\t// in\n    tag_135:\n        /* \"#utility.yul\":5528:5553   */\n      swap3\n      pop\n        /* \"#utility.yul\":5576:5577   */\n      dup3\n        /* \"#utility.yul\":5573:5574   */\n      dup3\n        /* \"#utility.yul\":5569:5578   */\n      add\n        /* \"#utility.yul\":5562:5578   */\n      swap1\n      pop\n        /* \"#utility.yul\":5597:5600   */\n      dup1\n        /* \"#utility.yul\":5594:5595   */\n      dup3\n        /* \"#utility.yul\":5591:5601   */\n      gt\n        /* \"#utility.yul\":5588:5624   */\n      iszero\n      tag_136\n      jumpi\n        /* \"#utility.yul\":5604:5622   */\n      tag_137\n      tag_60\n      jump\t// in\n    tag_137:\n        /* \"#utility.yul\":5588:5624   */\n    tag_136:\n        /* \"#utility.yul\":5440:5631   */\n      swap3\n      swap2\n      pop\n      pop\n      jump\t// out\n        /* \"#utility.yul\":5637:5745   */\n    tag_61:\n        /* \"#utility.yul\":5714:5738   */\n      tag_139\n        /* \"#utility.yul\":5732:5737   */\n      dup2\n        /* \"#utility.yul\":5714:5738   */\n      tag_41\n      jump\t// in\n    tag_139:\n        /* \"#utility.yul\":5709:5712   */\n      dup3\n        /* \"#utility.yul\":5702:5739   */\n      mstore\n        /* \"#utility.yul\":5637:5745   */\n      pop\n      pop\n      jump\t// out\n        /* \"#utility.yul\":5751:5842   */\n    tag_62:\n        /* \"#utility.yul\":5787:5794   */\n      0x00\n        /* \"#utility.yul\":5827:5835   */\n      0xffffff\n        /* \"#utility.yul\":5820:5825   */\n      dup3\n        /* \"#utility.yul\":5816:5836   */\n      and\n        /* \"#utility.yul\":5805:5836   */\n      swap1\n      pop\n        /* \"#utility.yul\":5751:5842   */\n      swap2\n      swap1\n      pop\n      jump\t// out\n        /* \"#utility.yul\":5848:5953   */\n    tag_63:\n        /* \"#utility.yul\":5923:5946   */\n      tag_142\n        /* \"#utility.yul\":5940:5945   */\n      dup2\n        /* \"#utility.yul\":5923:5946   */\n      tag_62\n      jump\t// in\n    tag_142:\n        /* \"#utility.yul\":5918:5921   */\n      dup3\n        /* \"#utility.yul\":5911:5947   */\n      mstore\n        /* \"#utility.yul\":5848:5953   */\n      pop\n      pop\n      jump\t// out\n        /* \"#utility.yul\":5959:6067   */\n    tag_64:\n        /* \"#utility.yul\":6036:6060   */\n      tag_144\n        /* \"#utility.yul\":6054:6059   */\n      dup2\n        /* \"#utility.yul\":6036:6060   */\n      tag_48\n      jump\t// in\n    tag_144:\n        /* \"#utility.yul\":6031:6034   */\n      dup3\n        /* \"#utility.yul\":6024:6061   */\n      mstore\n        /* \"#utility.yul\":5959:6067   */\n      pop\n      pop\n      jump\t// out\n        /* \"#utility.yul\":6073:6181   */\n    tag_65:\n        /* \"#utility.yul\":6150:6174   */\n      tag_146\n        /* \"#utility.yul\":6168:6173   */\n      dup2\n        /* \"#utility.yul\":6150:6174   */\n      tag_40\n      jump\t// in\n    tag_146:\n        /* \"#utility.yul\":6145:6148   */\n      dup3\n        /* \"#utility.yul\":6138:6175   */\n      mstore\n        /* \"#utility.yul\":6073:6181   */\n      pop\n      pop\n      jump\t// out\n        /* \"#utility.yul\":6281:7904   */\n    tag_66:\n        /* \"#utility.yul\":6456:6462   */\n      0x0100\n        /* \"#utility.yul\":6451:6454   */\n      dup3\n        /* \"#utility.yul\":6447:6463   */\n      add\n        /* \"#utility.yul\":6548:6552   */\n      0x00\n        /* \"#utility.yul\":6541:6546   */\n      dup3\n        /* \"#utility.yul\":6537:6553   */\n      add\n        /* \"#utility.yul\":6531:6554   */\n      mload\n        /* \"#utility.yul\":6567:6630   */\n      tag_148\n        /* \"#utility.yul\":6624:6628   */\n      0x00\n        /* \"#utility.yul\":6619:6622   */\n      dup6\n        /* \"#utility.yul\":6615:6629   */\n      add\n        /* \"#utility.yul\":6601:6613   */\n      dup3\n        /* \"#utility.yul\":6567:6630   */\n      tag_61\n      jump\t// in\n    tag_148:\n        /* \"#utility.yul\":6473:6640   */\n      pop\n        /* \"#utility.yul\":6726:6730   */\n      0x20\n        /* \"#utility.yul\":6719:6724   */\n      dup3\n        /* \"#utility.yul\":6715:6731   */\n      add\n        /* \"#utility.yul\":6709:6732   */\n      mload\n        /* \"#utility.yul\":6745:6808   */\n      tag_149\n        /* \"#utility.yul\":6802:6806   */\n      0x20\n        /* \"#utility.yul\":6797:6800   */\n      dup6\n        /* \"#utility.yul\":6793:6807   */\n      add\n        /* \"#utility.yul\":6779:6791   */\n      dup3\n        /* \"#utility.yul\":6745:6808   */\n      tag_61\n      jump\t// in\n    tag_149:\n        /* \"#utility.yul\":6650:6818   */\n      pop\n        /* \"#utility.yul\":6899:6903   */\n      0x40\n        /* \"#utility.yul\":6892:6897   */\n      dup3\n        /* \"#utility.yul\":6888:6904   */\n      add\n        /* \"#utility.yul\":6882:6905   */\n      mload\n        /* \"#utility.yul\":6918:6979   */\n      tag_150\n        /* \"#utility.yul\":6973:6977   */\n      0x40\n        /* \"#utility.yul\":6968:6971   */\n      dup6\n        /* \"#utility.yul\":6964:6978   */\n      add\n        /* \"#utility.yul\":6950:6962   */\n      dup3\n        /* \"#utility.yul\":6918:6979   */\n      tag_63\n      jump\t// in\n    tag_150:\n        /* \"#utility.yul\":6828:6989   */\n      pop\n        /* \"#utility.yul\":7076:7080   */\n      0x60\n        /* \"#utility.yul\":7069:7074   */\n      dup3\n        /* \"#utility.yul\":7065:7081   */\n      add\n        /* \"#utility.yul\":7059:7082   */\n      mload\n        /* \"#utility.yul\":7095:7158   */\n      tag_151\n        /* \"#utility.yul\":7152:7156   */\n      0x60\n        /* \"#utility.yul\":7147:7150   */\n      dup6\n        /* \"#utility.yul\":7143:7157   */\n      add\n        /* \"#utility.yul\":7129:7141   */\n      dup3\n        /* \"#utility.yul\":7095:7158   */\n      tag_61\n      jump\t// in\n    tag_151:\n        /* \"#utility.yul\":6999:7168   */\n      pop\n        /* \"#utility.yul\":7254:7258   */\n      0x80\n        /* \"#utility.yul\":7247:7252   */\n      dup3\n        /* \"#utility.yul\":7243:7259   */\n      add\n        /* \"#utility.yul\":7237:7260   */\n      mload\n        /* \"#utility.yul\":7273:7336   */\n      tag_152\n        /* \"#utility.yul\":7330:7334   */\n      0x80\n        /* \"#utility.yul\":7325:7328   */\n      dup6\n        /* \"#utility.yul\":7321:7335   */\n      add\n        /* \"#utility.yul\":7307:7319   */\n      dup3\n        /* \"#utility.yul\":7273:7336   */\n      tag_64\n      jump\t// in\n    tag_152:\n        /* \"#utility.yul\":7178:7346   */\n      pop\n        /* \"#utility.yul\":7432:7436   */\n      0xa0\n        /* \"#utility.yul\":7425:7430   */\n      dup3\n        /* \"#utility.yul\":7421:7437   */\n      add\n        /* \"#utility.yul\":7415:7438   */\n      mload\n        /* \"#utility.yul\":7451:7514   */\n      tag_153\n        /* \"#utility.yul\":7508:7512   */\n      0xa0\n        /* \"#utility.yul\":7503:7506   */\n      dup6\n        /* \"#utility.yul\":7499:7513   */\n      add\n        /* \"#utility.yul\":7485:7497   */\n      dup3\n        /* \"#utility.yul\":7451:7514   */\n      tag_64\n      jump\t// in\n    tag_153:\n        /* \"#utility.yul\":7356:7524   */\n      pop\n        /* \"#utility.yul\":7618:7622   */\n      0xc0\n        /* \"#utility.yul\":7611:7616   */\n      dup3\n        /* \"#utility.yul\":7607:7623   */\n      add\n        /* \"#utility.yul\":7601:7624   */\n      mload\n        /* \"#utility.yul\":7637:7700   */\n      tag_154\n        /* \"#utility.yul\":7694:7698   */\n      0xc0\n        /* \"#utility.yul\":7689:7692   */\n      dup6\n        /* \"#utility.yul\":7685:7699   */\n      add\n        /* \"#utility.yul\":7671:7683   */\n      dup3\n        /* \"#utility.yul\":7637:7700   */\n      tag_64\n      jump\t// in\n    tag_154:\n        /* \"#utility.yul\":7534:7710   */\n      pop\n        /* \"#utility.yul\":7805:7809   */\n      0xe0\n        /* \"#utility.yul\":7798:7803   */\n      dup3\n        /* \"#utility.yul\":7794:7810   */\n      add\n        /* \"#utility.yul\":7788:7811   */\n      mload\n        /* \"#utility.yul\":7824:7887   */\n      tag_155\n        /* \"#utility.yul\":7881:7885   */\n      0xe0\n        /* \"#utility.yul\":7876:7879   */\n      dup6\n        /* \"#utility.yul\":7872:7886   */\n      add\n        /* \"#utility.yul\":7858:7870   */\n      dup3\n        /* \"#utility.yul\":7824:7887   */\n      tag_65\n      jump\t// in\n    tag_155:\n        /* \"#utility.yul\":7720:7897   */\n      pop\n        /* \"#utility.yul\":6425:7904   */\n      pop\n        /* \"#utility.yul\":6281:7904   */\n      pop\n      pop\n      jump\t// out\n        /* \"#utility.yul\":7910:8289   */\n    tag_35:\n        /* \"#utility.yul\":8081:8085   */\n      0x00\n        /* \"#utility.yul\":8119:8122   */\n      0x0100\n        /* \"#utility.yul\":8108:8117   */\n      dup3\n        /* \"#utility.yul\":8104:8123   */\n      add\n        /* \"#utility.yul\":8096:8123   */\n      swap1\n      pop\n        /* \"#utility.yul\":8133:8282   */\n      tag_157\n        /* \"#utility.yul\":8279:8280   */\n      0x00\n        /* \"#utility.yul\":8268:8277   */\n      dup4\n        /* \"#utility.yul\":8264:8281   */\n      add\n        /* \"#utility.yul\":8255:8261   */\n      dup5\n        /* \"#utility.yul\":8133:8282   */\n      tag_66\n      jump\t// in\n    tag_157:\n        /* \"#utility.yul\":7910:8289   */\n      swap3\n      swap2\n      pop\n      pop\n      jump\t// out\n        /* \"#utility.yul\":8295:8438   */\n    tag_67:\n        /* \"#utility.yul\":8352:8357   */\n      0x00\n        /* \"#utility.yul\":8383:8389   */\n      dup2\n        /* \"#utility.yul\":8377:8390   */\n      mload\n        /* \"#utility.yul\":8368:8390   */\n      swap1\n      pop\n        /* \"#utility.yul\":8399:8432   */\n      tag_159\n        /* \"#utility.yul\":8426:8431   */\n      dup2\n        /* \"#utility.yul\":8399:8432   */\n      tag_49\n      jump\t// in\n    tag_159:\n        /* \"#utility.yul\":8295:8438   */\n      swap3\n      swap2\n      pop\n      pop\n      jump\t// out\n        /* \"#utility.yul\":8444:8795   */\n    tag_39:\n        /* \"#utility.yul\":8514:8520   */\n      0x00\n        /* \"#utility.yul\":8563:8565   */\n      0x20\n        /* \"#utility.yul\":8551:8560   */\n      dup3\n        /* \"#utility.yul\":8542:8549   */\n      dup5\n        /* \"#utility.yul\":8538:8561   */\n      sub\n        /* \"#utility.yul\":8534:8566   */\n      slt\n        /* \"#utility.yul\":8531:8650   */\n      iszero\n      tag_161\n      jumpi\n        /* \"#utility.yul\":8569:8648   */\n      tag_162\n      tag_44\n      jump\t// in\n    tag_162:\n        /* \"#utility.yul\":8531:8650   */\n    tag_161:\n        /* \"#utility.yul\":8689:8690   */\n      0x00\n        /* \"#utility.yul\":8714:8778   */\n      tag_163\n        /* \"#utility.yul\":8770:8777   */\n      dup5\n        /* \"#utility.yul\":8761:8767   */\n      dup3\n        /* \"#utility.yul\":8750:8759   */\n      dup6\n        /* \"#utility.yul\":8746:8768   */\n      add\n        /* \"#utility.yul\":8714:8778   */\n      tag_67\n      jump\t// in\n    tag_163:\n        /* \"#utility.yul\":8704:8778   */\n      swap2\n      pop\n        /* \"#utility.yul\":8660:8788   */\n      pop\n        /* \"#utility.yul\":8444:8795   */\n      swap3\n      swap2\n      pop\n      pop\n      jump\t// out\n\n    auxdata: 0xa2646970667358221220e7b222402c618dcdd6fe628628af6ba590c1dd92ff3468b0899be1628048e8cc64736f6c634300081a0033\n}\n",
				"bytecode": {
					"linkReferences": {},
					"object": "60a060405234801561000f575f80fd5b506040516108df3803806108df833981810160405281019061003191906100da565b8073ffffffffffffffffffffffffffffffffffffffff1660808173ffffffffffffffffffffffffffffffffffffffff168152505050610105565b5f80fd5b5f73ffffffffffffffffffffffffffffffffffffffff82169050919050565b5f6100988261006f565b9050919050565b5f6100a98261008e565b9050919050565b6100b98161009f565b81146100c3575f80fd5b50565b5f815190506100d4816100b0565b92915050565b5f602082840312156100ef576100ee61006b565b5b5f6100fc848285016100c6565b91505092915050565b6080516107b461012b5f395f81816101640152818161028c015261033101526107b45ff3fe608060405234801561000f575f80fd5b506004361061003f575f3560e01c80634aa4a4fc1461004357806359953f1614610061578063c31c9c0714610091575b5f80fd5b61004b6100af565b6040516100589190610392565b60405180910390f35b61007b6004803603810190610076919061040c565b6100c7565b6040516100889190610492565b60405180910390f35b61009961032f565b6040516100a69190610506565b60405180910390f35b73c02aaa39b223fe8d0a0e5c4f27ead9083c756cc281565b5f8573ffffffffffffffffffffffffffffffffffffffff166323b872dd3330876040518463ffffffff1660e01b81526004016101059392919061051f565b6020604051808303815f875af1158015610121573d5f803e3d5ffd5b505050506040513d601f19601f820116820180604052508101906101459190610589565b508573ffffffffffffffffffffffffffffffffffffffff1663095ea7b37f0000000000000000000000000000000000000000000000000000000000000000866040518363ffffffff1660e01b81526004016101a19291906105b4565b6020604051808303815f875af11580156101bd573d5f803e3d5ffd5b505050506040513d601f19601f820116820180604052508101906101e19190610589565b505f6040518061010001604052808873ffffffffffffffffffffffffffffffffffffffff1681526020018773ffffffffffffffffffffffffffffffffffffffff168152602001610bb862ffffff1681526020018473ffffffffffffffffffffffffffffffffffffffff168152602001600f4261025d9190610608565b81526020018681526020018581526020015f73ffffffffffffffffffffffffffffffffffffffff1681525090507f000000000000000000000000000000000000000000000000000000000000000073ffffffffffffffffffffffffffffffffffffffff1663414bf389826040518263ffffffff1660e01b81526004016102e39190610725565b6020604051808303815f875af11580156102ff573d5f803e3d5ffd5b505050506040513d601f19601f820116820180604052508101906103239190610753565b91505095945050505050565b7f000000000000000000000000000000000000000000000000000000000000000081565b5f73ffffffffffffffffffffffffffffffffffffffff82169050919050565b5f61037c82610353565b9050919050565b61038c81610372565b82525050565b5f6020820190506103a55f830184610383565b92915050565b5f80fd5b6103b881610372565b81146103c2575f80fd5b50565b5f813590506103d3816103af565b92915050565b5f819050919050565b6103eb816103d9565b81146103f5575f80fd5b50565b5f81359050610406816103e2565b92915050565b5f805f805f60a08688031215610425576104246103ab565b5b5f610432888289016103c5565b9550506020610443888289016103c5565b9450506040610454888289016103f8565b9350506060610465888289016103f8565b9250506080610476888289016103c5565b9150509295509295909350565b61048c816103d9565b82525050565b5f6020820190506104a55f830184610483565b92915050565b5f819050919050565b5f6104ce6104c96104c484610353565b6104ab565b610353565b9050919050565b5f6104df826104b4565b9050919050565b5f6104f0826104d5565b9050919050565b610500816104e6565b82525050565b5f6020820190506105195f8301846104f7565b92915050565b5f6060820190506105325f830186610383565b61053f6020830185610383565b61054c6040830184610483565b949350505050565b5f8115159050919050565b61056881610554565b8114610572575f80fd5b50565b5f815190506105838161055f565b92915050565b5f6020828403121561059e5761059d6103ab565b5b5f6105ab84828501610575565b91505092915050565b5f6040820190506105c75f830185610383565b6105d46020830184610483565b9392505050565b7f4e487b71000000000000000000000000000000000000000000000000000000005f52601160045260245ffd5b5f610612826103d9565b915061061d836103d9565b9250828201905080821115610635576106346105db565b5b92915050565b61064481610372565b82525050565b5f62ffffff82169050919050565b6106618161064a565b82525050565b610670816103d9565b82525050565b61067f81610353565b82525050565b61010082015f82015161069a5f85018261063b565b5060208201516106ad602085018261063b565b5060408201516106c06040850182610658565b5060608201516106d3606085018261063b565b5060808201516106e66080850182610667565b5060a08201516106f960a0850182610667565b5060c082015161070c60c0850182610667565b5060e082015161071f60e0850182610676565b50505050565b5f610100820190506107395f830184610685565b92915050565b5f8151905061074d816103e2565b92915050565b5f60208284031215610768576107676103ab565b5b5f6107758482850161073f565b9150509291505056fea2646970667358221220e7b222402c618dcdd6fe628628af6ba590c1dd92ff3468b0899be1628048e8cc64736f6c634300081a0033",
					"opcodes": "PUSH1 0xA0 PUSH1 0x40 MSTORE CALLVALUE DUP1 ISZERO PUSH2 0xF JUMPI PUSH0 DUP1 REVERT JUMPDEST POP PUSH1 0x40 MLOAD PUSH2 0x8DF CODESIZE SUB DUP1 PUSH2 0x8DF DUP4 CODECOPY DUP2 DUP2 ADD PUSH1 0x40 MSTORE DUP2 ADD SWAP1 PUSH2 0x31 SWAP2 SWAP1 PUSH2 0xDA JUMP JUMPDEST DUP1 PUSH20 0xFFFFFFFFFFFFFFFFFFFFFFFFFFFFFFFFFFFFFFFF AND PUSH1 0x80 DUP2 PUSH20 0xFFFFFFFFFFFFFFFFFFFFFFFFFFFFFFFFFFFFFFFF AND DUP2 MSTORE POP POP POP PUSH2 0x105 JUMP JUMPDEST PUSH0 DUP1 REVERT JUMPDEST PUSH0 PUSH20 0xFFFFFFFFFFFFFFFFFFFFFFFFFFFFFFFFFFFFFFFF DUP3 AND SWAP1 POP SWAP2 SWAP1 POP JUMP JUMPDEST PUSH0 PUSH2 0x98 DUP3 PUSH2 0x6F JUMP JUMPDEST SWAP1 POP SWAP2 SWAP1 POP JUMP JUMPDEST PUSH0 PUSH2 0xA9 DUP3 PUSH2 0x8E JUMP JUMPDEST SWAP1 POP SWAP2 SWAP1 POP JUMP JUMPDEST PUSH2 0xB9 DUP2 PUSH2 0x9F JUMP JUMPDEST DUP2 EQ PUSH2 0xC3 JUMPI PUSH0 DUP1 REVERT JUMPDEST POP JUMP JUMPDEST PUSH0 DUP2 MLOAD SWAP1 POP PUSH2 0xD4 DUP2 PUSH2 0xB0 JUMP JUMPDEST SWAP3 SWAP2 POP POP JUMP JUMPDEST PUSH0 PUSH1 0x20 DUP3 DUP5 SUB SLT ISZERO PUSH2 0xEF JUMPI PUSH2 0xEE PUSH2 0x6B JUMP JUMPDEST JUMPDEST PUSH0 PUSH2 0xFC DUP5 DUP3 DUP6 ADD PUSH2 0xC6 JUMP JUMPDEST SWAP2 POP POP SWAP3 SWAP2 POP POP JUMP JUMPDEST PUSH1 0x80 MLOAD PUSH2 0x7B4 PUSH2 0x12B PUSH0 CODECOPY PUSH0 DUP2 DUP2 PUSH2 0x164 ADD MSTORE DUP2 DUP2 PUSH2 0x28C ADD MSTORE PUSH2 0x331 ADD MSTORE PUSH2 0x7B4 PUSH0 RETURN INVALID PUSH1 0x80 PUSH1 0x40 MSTORE CALLVALUE DUP1 ISZERO PUSH2 0xF JUMPI PUSH0 DUP1 REVERT JUMPDEST POP PUSH1 0x4 CALLDATASIZE LT PUSH2 0x3F JUMPI PUSH0 CALLDATALOAD PUSH1 0xE0 SHR DUP1 PUSH4 0x4AA4A4FC EQ PUSH2 0x43 JUMPI DUP1 PUSH4 0x59953F16 EQ PUSH2 0x61 JUMPI DUP1 PUSH4 0xC31C9C07 EQ PUSH2 0x91 JUMPI JUMPDEST PUSH0 DUP1 REVERT JUMPDEST PUSH2 0x4B PUSH2 0xAF JUMP JUMPDEST PUSH1 0x40 MLOAD PUSH2 0x58 SWAP2 SWAP1 PUSH2 0x392 JUMP JUMPDEST PUSH1 0x40 MLOAD DUP1 SWAP2 SUB SWAP1 RETURN JUMPDEST PUSH2 0x7B PUSH1 0x4 DUP1 CALLDATASIZE SUB DUP2 ADD SWAP1 PUSH2 0x76 SWAP2 SWAP1 PUSH2 0x40C JUMP JUMPDEST PUSH2 0xC7 JUMP JUMPDEST PUSH1 0x40 MLOAD PUSH2 0x88 SWAP2 SWAP1 PUSH2 0x492 JUMP JUMPDEST PUSH1 0x40 MLOAD DUP1 SWAP2 SUB SWAP1 RETURN JUMPDEST PUSH2 0x99 PUSH2 0x32F JUMP JUMPDEST PUSH1 0x40 MLOAD PUSH2 0xA6 SWAP2 SWAP1 PUSH2 0x506 JUMP JUMPDEST PUSH1 0x40 MLOAD DUP1 SWAP2 SUB SWAP1 RETURN JUMPDEST PUSH20 0xC02AAA39B223FE8D0A0E5C4F27EAD9083C756CC2 DUP2 JUMP JUMPDEST PUSH0 DUP6 PUSH20 0xFFFFFFFFFFFFFFFFFFFFFFFFFFFFFFFFFFFFFFFF AND PUSH4 0x23B872DD CALLER ADDRESS DUP8 PUSH1 0x40 MLOAD DUP5 PUSH4 0xFFFFFFFF AND PUSH1 0xE0 SHL DUP2 MSTORE PUSH1 0x4 ADD PUSH2 0x105 SWAP4 SWAP3 SWAP2 SWAP1 PUSH2 0x51F JUMP JUMPDEST PUSH1 0x20 PUSH1 0x40 MLOAD DUP1 DUP4 SUB DUP2 PUSH0 DUP8 GAS CALL ISZERO DUP1 ISZERO PUSH2 0x121 JUMPI RETURNDATASIZE PUSH0 DUP1 RETURNDATACOPY RETURNDATASIZE PUSH0 REVERT JUMPDEST POP POP POP POP PUSH1 0x40 MLOAD RETURNDATASIZE PUSH1 0x1F NOT PUSH1 0x1F DUP3 ADD AND DUP3 ADD DUP1 PUSH1 0x40 MSTORE POP DUP2 ADD SWAP1 PUSH2 0x145 SWAP2 SWAP1 PUSH2 0x589 JUMP JUMPDEST POP DUP6 PUSH20 0xFFFFFFFFFFFFFFFFFFFFFFFFFFFFFFFFFFFFFFFF AND PUSH4 0x95EA7B3 PUSH32 0x0 DUP7 PUSH1 0x40 MLOAD DUP4 PUSH4 0xFFFFFFFF AND PUSH1 0xE0 SHL DUP2 MSTORE PUSH1 0x4 ADD PUSH2 0x1A1 SWAP3 SWAP2 SWAP1 PUSH2 0x5B4 JUMP JUMPDEST PUSH1 0x20 PUSH1 0x40 MLOAD DUP1 DUP4 SUB DUP2 PUSH0 DUP8 GAS CALL ISZERO DUP1 ISZERO PUSH2 0x1BD JUMPI RETURNDATASIZE PUSH0 DUP1 RETURNDATACOPY RETURNDATASIZE PUSH0 REVERT JUMPDEST POP POP POP POP PUSH1 0x40 MLOAD RETURNDATASIZE PUSH1 0x1F NOT PUSH1 0x1F DUP3 ADD AND DUP3 ADD DUP1 PUSH1 0x40 MSTORE POP DUP2 ADD SWAP1 PUSH2 0x1E1 SWAP2 SWAP1 PUSH2 0x589 JUMP JUMPDEST POP PUSH0 PUSH1 0x40 MLOAD DUP1 PUSH2 0x100 ADD PUSH1 0x40 MSTORE DUP1 DUP9 PUSH20 0xFFFFFFFFFFFFFFFFFFFFFFFFFFFFFFFFFFFFFFFF AND DUP2 MSTORE PUSH1 0x20 ADD DUP8 PUSH20 0xFFFFFFFFFFFFFFFFFFFFFFFFFFFFFFFFFFFFFFFF AND DUP2 MSTORE PUSH1 0x20 ADD PUSH2 0xBB8 PUSH3 0xFFFFFF AND DUP2 MSTORE PUSH1 0x20 ADD DUP5 PUSH20 0xFFFFFFFFFFFFFFFFFFFFFFFFFFFFFFFFFFFFFFFF AND DUP2 MSTORE PUSH1 0x20 ADD PUSH1 0xF TIMESTAMP PUSH2 0x25D SWAP2 SWAP1 PUSH2 0x608 JUMP JUMPDEST DUP2 MSTORE PUSH1 0x20 ADD DUP7 DUP2 MSTORE PUSH1 0x20 ADD DUP6 DUP2 MSTORE PUSH1 0x20 ADD PUSH0 PUSH20 0xFFFFFFFFFFFFFFFFFFFFFFFFFFFFFFFFFFFFFFFF AND DUP2 MSTORE POP SWAP1 POP PUSH32 0x0 PUSH20 0xFFFFFFFFFFFFFFFFFFFFFFFFFFFFFFFFFFFFFFFF AND PUSH4 0x414BF389 DUP3 PUSH1 0x40 MLOAD DUP3 PUSH4 0xFFFFFFFF AND PUSH1 0xE0 SHL DUP2 MSTORE PUSH1 0x4 ADD PUSH2 0x2E3 SWAP2 SWAP1 PUSH2 0x725 JUMP JUMPDEST PUSH1 0x20 PUSH1 0x40 MLOAD DUP1 DUP4 SUB DUP2 PUSH0 DUP8 GAS CALL ISZERO DUP1 ISZERO PUSH2 0x2FF JUMPI RETURNDATASIZE PUSH0 DUP1 RETURNDATACOPY RETURNDATASIZE PUSH0 REVERT JUMPDEST POP POP POP POP PUSH1 0x40 MLOAD RETURNDATASIZE PUSH1 0x1F NOT PUSH1 0x1F DUP3 ADD AND DUP3 ADD DUP1 PUSH1 0x40 MSTORE POP DUP2 ADD SWAP1 PUSH2 0x323 SWAP2 SWAP1 PUSH2 0x753 JUMP JUMPDEST SWAP2 POP POP SWAP6 SWAP5 POP POP POP POP POP JUMP JUMPDEST PUSH32 0x0 DUP2 JUMP JUMPDEST PUSH0 PUSH20 0xFFFFFFFFFFFFFFFFFFFFFFFFFFFFFFFFFFFFFFFF DUP3 AND SWAP1 POP SWAP2 SWAP1 POP JUMP JUMPDEST PUSH0 PUSH2 0x37C DUP3 PUSH2 0x353 JUMP JUMPDEST SWAP1 POP SWAP2 SWAP1 POP JUMP JUMPDEST PUSH2 0x38C DUP2 PUSH2 0x372 JUMP JUMPDEST DUP3 MSTORE POP POP JUMP JUMPDEST PUSH0 PUSH1 0x20 DUP3 ADD SWAP1 POP PUSH2 0x3A5 PUSH0 DUP4 ADD DUP5 PUSH2 0x383 JUMP JUMPDEST SWAP3 SWAP2 POP POP JUMP JUMPDEST PUSH0 DUP1 REVERT JUMPDEST PUSH2 0x3B8 DUP2 PUSH2 0x372 JUMP JUMPDEST DUP2 EQ PUSH2 0x3C2 JUMPI PUSH0 DUP1 REVERT JUMPDEST POP JUMP JUMPDEST PUSH0 DUP2 CALLDATALOAD SWAP1 POP PUSH2 0x3D3 DUP2 PUSH2 0x3AF JUMP JUMPDEST SWAP3 SWAP2 POP POP JUMP JUMPDEST PUSH0 DUP2 SWAP1 POP SWAP2 SWAP1 POP JUMP JUMPDEST PUSH2 0x3EB DUP2 PUSH2 0x3D9 JUMP JUMPDEST DUP2 EQ PUSH2 0x3F5 JUMPI PUSH0 DUP1 REVERT JUMPDEST POP JUMP JUMPDEST PUSH0 DUP2 CALLDATALOAD SWAP1 POP PUSH2 0x406 DUP2 PUSH2 0x3E2 JUMP JUMPDEST SWAP3 SWAP2 POP POP JUMP JUMPDEST PUSH0 DUP1 PUSH0 DUP1 PUSH0 PUSH1 0xA0 DUP7 DUP9 SUB SLT ISZERO PUSH2 0x425 JUMPI PUSH2 0x424 PUSH2 0x3AB JUMP JUMPDEST JUMPDEST PUSH0 PUSH2 0x432 DUP9 DUP3 DUP10 ADD PUSH2 0x3C5 JUMP JUMPDEST SWAP6 POP POP PUSH1 0x20 PUSH2 0x443 DUP9 DUP3 DUP10 ADD PUSH2 0x3C5 JUMP JUMPDEST SWAP5 POP POP PUSH1 0x40 PUSH2 0x454 DUP9 DUP3 DUP10 ADD PUSH2 0x3F8 JUMP JUMPDEST SWAP4 POP POP PUSH1 0x60 PUSH2 0x465 DUP9 DUP3 DUP10 ADD PUSH2 0x3F8 JUMP JUMPDEST SWAP3 POP POP PUSH1 0x80 PUSH2 0x476 DUP9 DUP3 DUP10 ADD PUSH2 0x3C5 JUMP JUMPDEST SWAP2 POP POP SWAP3 SWAP6 POP SWAP3 SWAP6 SWAP1 SWAP4 POP JUMP JUMPDEST PUSH2 0x48C DUP2 PUSH2 0x3D9 JUMP JUMPDEST DUP3 MSTORE POP POP JUMP JUMPDEST PUSH0 PUSH1 0x20 DUP3 ADD SWAP1 POP PUSH2 0x4A5 PUSH0 DUP4 ADD DUP5 PUSH2 0x483 JUMP JUMPDEST SWAP3 SWAP2 POP POP JUMP JUMPDEST PUSH0 DUP2 SWAP1 POP SWAP2 SWAP1 POP JUMP JUMPDEST PUSH0 PUSH2 0x4CE PUSH2 0x4C9 PUSH2 0x4C4 DUP5 PUSH2 0x353 JUMP JUMPDEST PUSH2 0x4AB JUMP JUMPDEST PUSH2 0x353 JUMP JUMPDEST SWAP1 POP SWAP2 SWAP1 POP JUMP JUMPDEST PUSH0 PUSH2 0x4DF DUP3 PUSH2 0x4B4 JUMP JUMPDEST SWAP1 POP SWAP2 SWAP1 POP JUMP JUMPDEST PUSH0 PUSH2 0x4F0 DUP3 PUSH2 0x4D5 JUMP JUMPDEST SWAP1 POP SWAP2 SWAP1 POP JUMP JUMPDEST PUSH2 0x500 DUP2 PUSH2 0x4E6 JUMP JUMPDEST DUP3 MSTORE POP POP JUMP JUMPDEST PUSH0 PUSH1 0x20 DUP3 ADD SWAP1 POP PUSH2 0x519 PUSH0 DUP4 ADD DUP5 PUSH2 0x4F7 JUMP JUMPDEST SWAP3 SWAP2 POP POP JUMP JUMPDEST PUSH0 PUSH1 0x60 DUP3 ADD SWAP1 POP PUSH2 0x532 PUSH0 DUP4 ADD DUP7 PUSH2 0x383 JUMP JUMPDEST PUSH2 0x53F PUSH1 0x20 DUP4 ADD DUP6 PUSH2 0x383 JUMP JUMPDEST PUSH2 0x54C PUSH1 0x40 DUP4 ADD DUP5 PUSH2 0x483 JUMP JUMPDEST SWAP5 SWAP4 POP POP POP POP JUMP JUMPDEST PUSH0 DUP2 ISZERO ISZERO SWAP1 POP SWAP2 SWAP1 POP JUMP JUMPDEST PUSH2 0x568 DUP2 PUSH2 0x554 JUMP JUMPDEST DUP2 EQ PUSH2 0x572 JUMPI PUSH0 DUP1 REVERT JUMPDEST POP JUMP JUMPDEST PUSH0 DUP2 MLOAD SWAP1 POP PUSH2 0x583 DUP2 PUSH2 0x55F JUMP JUMPDEST SWAP3 SWAP2 POP POP JUMP JUMPDEST PUSH0 PUSH1 0x20 DUP3 DUP5 SUB SLT ISZERO PUSH2 0x59E JUMPI PUSH2 0x59D PUSH2 0x3AB JUMP JUMPDEST JUMPDEST PUSH0 PUSH2 0x5AB DUP5 DUP3 DUP6 ADD PUSH2 0x575 JUMP JUMPDEST SWAP2 POP POP SWAP3 SWAP2 POP POP JUMP JUMPDEST PUSH0 PUSH1 0x40 DUP3 ADD SWAP1 POP PUSH2 0x5C7 PUSH0 DUP4 ADD DUP6 PUSH2 0x383 JUMP JUMPDEST PUSH2 0x5D4 PUSH1 0x20 DUP4 ADD DUP5 PUSH2 0x483 JUMP JUMPDEST SWAP4 SWAP3 POP POP POP JUMP JUMPDEST PUSH32 0x4E487B7100000000000000000000000000000000000000000000000000000000 PUSH0 MSTORE PUSH1 0x11 PUSH1 0x4 MSTORE PUSH1 0x24 PUSH0 REVERT JUMPDEST PUSH0 PUSH2 0x612 DUP3 PUSH2 0x3D9 JUMP JUMPDEST SWAP2 POP PUSH2 0x61D DUP4 PUSH2 0x3D9 JUMP JUMPDEST SWAP3 POP DUP3 DUP3 ADD SWAP1 POP DUP1 DUP3 GT ISZERO PUSH2 0x635 JUMPI PUSH2 0x634 PUSH2 0x5DB JUMP JUMPDEST JUMPDEST SWAP3 SWAP2 POP POP JUMP JUMPDEST PUSH2 0x644 DUP2 PUSH2 0x372 JUMP JUMPDEST DUP3 MSTORE POP POP JUMP JUMPDEST PUSH0 PUSH3 0xFFFFFF DUP3 AND SWAP1 POP SWAP2 SWAP1 POP JUMP JUMPDEST PUSH2 0x661 DUP2 PUSH2 0x64A JUMP JUMPDEST DUP3 MSTORE POP POP JUMP JUMPDEST PUSH2 0x670 DUP2 PUSH2 0x3D9 JUMP JUMPDEST DUP3 MSTORE POP POP JUMP JUMPDEST PUSH2 0x67F DUP2 PUSH2 0x353 JUMP JUMPDEST DUP3 MSTORE POP POP JUMP JUMPDEST PUSH2 0x100 DUP3 ADD PUSH0 DUP3 ADD MLOAD PUSH2 0x69A PUSH0 DUP6 ADD DUP3 PUSH2 0x63B JUMP JUMPDEST POP PUSH1 0x20 DUP3 ADD MLOAD PUSH2 0x6AD PUSH1 0x20 DUP6 ADD DUP3 PUSH2 0x63B JUMP JUMPDEST POP PUSH1 0x40 DUP3 ADD MLOAD PUSH2 0x6C0 PUSH1 0x40 DUP6 ADD DUP3 PUSH2 0x658 JUMP JUMPDEST POP PUSH1 0x60 DUP3 ADD MLOAD PUSH2 0x6D3 PUSH1 0x60 DUP6 ADD DUP3 PUSH2 0x63B JUMP JUMPDEST POP PUSH1 0x80 DUP3 ADD MLOAD PUSH2 0x6E6 PUSH1 0x80 DUP6 ADD DUP3 PUSH2 0x667 JUMP JUMPDEST POP PUSH1 0xA0 DUP3 ADD MLOAD PUSH2 0x6F9 PUSH1 0xA0 DUP6 ADD DUP3 PUSH2 0x667 JUMP JUMPDEST POP PUSH1 0xC0 DUP3 ADD MLOAD PUSH2 0x70C PUSH1 0xC0 DUP6 ADD DUP3 PUSH2 0x667 JUMP JUMPDEST POP PUSH1 0xE0 DUP3 ADD MLOAD PUSH2 0x71F PUSH1 0xE0 DUP6 ADD DUP3 PUSH2 0x676 JUMP JUMPDEST POP POP POP POP JUMP JUMPDEST PUSH0 PUSH2 0x100 DUP3 ADD SWAP1 POP PUSH2 0x739 PUSH0 DUP4 ADD DUP5 PUSH2 0x685 JUMP JUMPDEST SWAP3 SWAP2 POP POP JUMP JUMPDEST PUSH0 DUP2 MLOAD SWAP1 POP PUSH2 0x74D DUP2 PUSH2 0x3E2 JUMP JUMPDEST SWAP3 SWAP2 POP POP JUMP JUMPDEST PUSH0 PUSH1 0x20 DUP3 DUP5 SUB SLT ISZERO PUSH2 0x768 JUMPI PUSH2 0x767 PUSH2 0x3AB JUMP JUMPDEST JUMPDEST PUSH0 PUSH2 0x775 DUP5 DUP3 DUP6 ADD PUSH2 0x73F JUMP JUMPDEST SWAP2 POP POP SWAP3 SWAP2 POP POP JUMP INVALID LOG2 PUSH5 0x6970667358 0x22 SLT KECCAK256 0xE7 0xB2 0x22 BLOCKHASH 0x2C PUSH2 0x8DCD 0xD6 INVALID PUSH3 0x8628AF PUSH12 0xA590C1DD92FF3468B0899BE1 PUSH3 0x8048E8 0xCC PUSH5 0x736F6C6343 STOP ADDMOD BYTE STOP CALLER "
				},
				"gasEstimates": {
					"creation": {
						"codeDepositCost": "394400",
						"executionCost": "infinite",
						"totalCost": "infinite"
					},
					"external": {
						"WETH9()": "351",
						"swapExactInputSingle(address,address,uint256,uint256,address)": "infinite",
						"swapRouter()": "infinite"
					}
				},
				"methodIdentifiers": {
					"WETH9()": "4aa4a4fc",
					"swapExactInputSingle(address,address,uint256,uint256,address)": "59953f16",
					"swapRouter()": "c31c9c07"
				}
			},
			"storageLayout": {
				"storage": [],
				"types": null
			},
			"userdoc": {
				"kind": "user",
				"methods": {},
				"version": 1
			}
		}
	}
}